:040000008031102813
:100008007E1480312000121D0A280B280E28813109
:10001800402180317E100900803112285830840038
:10002800873085001200E4001200E5001200E600A7
:100038001200E7001200E8001200E900FD0130306C
:1000480084000030850034308731642780317E1089
:1000580020008731052F1F3020004005F000700375
:10006800031D37283828BC28440803193C283D2894
:100078003F28BC28BC284108F20006307206031D40
:10008800462847286D284308F10021307106031DD2
:100098004E284F285C280130B800F730B200853070
:1000A800B3002030B0000030B1000130B4006D283A
:1000B80022307106031D612862286D280130B800BE
:1000C8001830B2008530B3003F30B0000030B100C6
:1000D800592860304005F000203070060319752853
:1000E80076287728BC287203031D7B287C287D2866
:1000F800BC2809307206031D82288328882801300D
:10010800B9000130B800BC2802307206031D8D28E2
:100118008E2898280130B8006230B6000130B0004F
:100128000030B100B401BC280A307206031D9D28B6
:100138009E28A3280130B8004308E200BC280330F9
:100148007206031DA828A928B2280130B80061301A
:10015800B6000130B0000030B10096280B307206AE
:10016800031DB728B8283E280130B8004208E1002E
:10017800080020004108FA00400860390319C52822
:10018800C628C7283F2905307A06031DCC28CD2864
:10019800D4280130B8000430FD004208BC003F29D3
:1001A80006307A06031DD928DA28DE288331C523CC
:1001B80080313F2909307A06031DE328E428F62810
:1001C8000130B8004208E3006308031DEC28ED285D
:1001D800F0280430FD003F290530FD008131C021A1
:1001E80080313F2908307A06031DFB28FC280629A0
:1001F8000130B8006330B6000130B0000030B10003
:10020800B4013F297A08031D0A290B290F298331D4
:10021800632380313F297A030319132914291A29E2
:1002280003307A06031D19291A291E2982312E2224
:1002380080313F290A307A06031D232924292F29D2
:100248000130B800C9014930B6000130B0000030B3
:10025800B100B4013F290B307A06031D3429352932
:1002680038290130B8003F2907307A06031D3D2997
:100278003E293F293F2908007D08031D44294529B7
:100288004A293D00900120001211BF293D00101D90
:100298004E294F295929121D522953295929873185
:1002A8006A278131FB303D0090058E1C5C295D2951
:1002B8006129900120001211BF29101C64296529A9
:1002C8006F29121C682969296F2986318426813192
:1002D800FE303D009005101E722973297D29121EDB
:1002E800762977297D29873170278131EF303D00C4
:1002F8009005101F802981298B29121F842985299F
:100308008B2987317E278131BF303D009005901EB3
:100318008E298F299929921E922993299929873103
:1003280038278131DF303D009005901C9C299D299C
:10033800A529921CA029A129A52990109301FD3077
:10034800900503307D020318AA29AB29AF29900133
:1003580020001211BF29901DB229B329BD29921D71
:10036800B629B729BD29833101238131F7303D00F2
:100378009005200012110800F4012000B701F401D3
:100388007408993E86000E3087001E30810074087C
:10039800F3000330F335890BCE297308293E860014
:1003A80087010630F00074088631E0268131673E07
:1003B80084008501000881000630F0007408863149
:1003C800E0268131683E860087017408F300033017
:1003D800F335890BEC2973082A3E84008501403FD8
:1003E800803F413F813F7408F3000330F335890BA8
:1003F800FA297308283E8600870188308100063074
:10040800F00074088631E0268131653E8600870158
:100418007408F3000330F335890B0F2A73082E3E56
:1004280084008501403F803F413F813F7408F300CD
:100438000330F335890B1D2A73082C3E860087018B
:10044800403081000130F407740803192C2A2D2A42
:10045800C4290800200040081F39F6004208F700A8
:100468007608031D382A392A4B2A7703031D3D2AAB
:100478003E2A9A2A0130B80003304106031D452A56
:10048800462A492A0130BD009A2ABD019A2A02301B
:100498007606031D502A512A9A2A44080F39F80073
:1004A80044088039F9007708031D5B2A5C2A9A2AD8
:1004B80078080319602A612A9A2A0130B800780856
:1004C800F000F101F035F10DF035F10DF035F10DD9
:1004D8002030F2000030F30070087207F400710851
:1004E800733DF5007408B500790803197C2A7D2A44
:1004F8007F2A0430B50703304106031D842A852A64
:100508008B2A350886008701843081009A2A79036E
:10051800031D8F2A902A952A3508860087018101B4
:100528009A2A350886008701883081000800003043
:10053800200031020830031930020318A42AA52A22
:10054800AA2A3108F3003008F200AE2A0830F20077
:100558000030F300FC30A40573080339A4047208C2
:10056800A5004930A6000030A70072083002B0008C
:100578007308313BB1004930B5003403031DC52A67
:10058800C62AE52AF101D92A3508860087013208EA
:10059800840033088500000881000130B20700306C
:1005A800B33D0130B5070130F1077108F000730859
:1005B800031DE02A72087002031CE32AE42AC82AF1
:1005C800002BF101F52A35088600870136088400DA
:1005D8008501000881000130B6070130B5070130F8
:1005E800F1077108F0007308031DFC2A72087002F5
:1005F800031CFF2A002BE72A08003D000F08031DF3
:10060800062B072B322B20002008FB000230FB367C
:10061800890B0B2B7B080F39FC000D307C06031D62
:10062800162B172B1B2B843123248331622B3A037F
:10063800031D1F2B202B2E2B85319625833120005F
:10064800201F272B282B2B2B8830A000622BC8308B
:10065800A000622B873144278331622B04300F06B8
:10066800031D372B382B622B1608031D3C2B3D2B03
:100678004E2B04307D06031D422B432B4E2B2000AE
:1006880042083D0096001608031D4B2B4C2B4E2BA1
:100698000330FD00023020003A06031D542B552B71
:1006A8002E2B82319B2283312000241F5C2B5D2B53
:1006B800602B8830A400622BC830A40008002000FA
:1006C80040081F39F800C901CA017808031D6D2BBD
:1006D8006E2B7D2B0130B8003B080319742B752B4A
:1006E800762B49143D0803197A2B7B2BB82BC91498
:1006F800B82B7803031D812B822B852B0130B80082
:10070800B82B02307806031D8A2B8B2BB82B440894
:100718000F39F60044088039F7000130B800760830
:10072800F000F101F035F10DF035F10DF035F10D76
:100738002030F2000030F30070087207F4007108EE
:10074800733DF5007408B50077080319AC2BAD2B81
:10075800AF2B0430B507350886008701011DB52B7E
:10076800B62BB82B0130C90038080319BC2BBD2B98
:10077800C42B4930B6000230B0000030B100B401DB
:100788000800803020004006031DCB2BCC2B222CE8
:100798004308F4004208F3007403031DD42BD52B3F
:1007A800E22B0130B800F330B2008630B3001230CB
:1007B800B0000030B1000130B400222C02307406C1
:1007C800031DE72BE82BF32B0130B800EE30B20005
:1007D8008530B3002930B0000030B100DF2B033082
:1007E8007406031DF82BF92B222C0130B8000330B6
:1007F8007302031C002C012C062C7630B2008730C3
:10080800B300162C7308F000F101F035F10D5E30DD
:10081800700784000730713D80388500003FB200C2
:10082800013FB30032088400330885000008F00057
:10083800F1017008B0007108B100DF2B08007F30AB
:100848002000A4057F30A005BA01B801B901B001A4
:10085800B1018031BD20843180312F2084312000C6
:100868003808031D382C392C442C0830A1000030DE
:10087800A3004030A2008430A0008430A400782C6B
:10088800C01F472C482C6B2C31084702031D4E2CE7
:10089800300846020318512C522C562C4708B10038
:1008A8004608B00082319B22843102302000BA0011
:1008B8000830A1000030A3004030A2008030A00022
:1008C8004930A6000030A700C830A400782C0130B9
:1008D800BA00A501C830A4000830A1004930A20020
:1008E8000030A300C830A0003D000E120800200010
:1008F800EE006E08ED000330ED35890B802C6D0895
:100908002C3E86008701811F8A2C8B2C8C2CC92CAD
:100918006E08ED000330ED35890B8F2C6D082D3EE8
:10092800860087010630EA006E088631CC268431BD
:10093800643E840085010008810020006E08ED00F7
:100948000330ED35890BA52C6D082C3E86008701F8
:10095800011FAF2CB02CBD2C6E08ED000330ED3517
:10096800890BB32C6D082C3E8600870188308100E6
:10097800C92C6E08ED000330ED35890BC02C6D08CD
:100988002C3E86008701C830810008002000EE0058
:100998006E08ED000330ED35890BCF2C6D08283E2D
:1009A80086008701811BD92CDA2C172D6E08ED00E3
:1009B8000330ED35890BDD2C6D08293E8600870153
:1009C8000630EA006E088631CC268431673E840002
:1009D80085010008810020006E08ED000330ED3528
:1009E800890BF32C6D08283E86008701011FFD2C1A
:1009F800FE2C0B2D6E08ED000330ED35890B012D13
:100A08006D08283E8600870188308100172D6E0802
:100A1800ED000330ED35890B0E2D6D08283E86005C
:100A28008701C830810008000534013409340634D0
:100A3800A1340134053407341934E0342934E73457
:100A480015340034253401347534013495340834B0
:100A580081340234953401347534083481340334D4
:100A680095340534753401340534083419340134A7
:100A780029340534913402349534013475340334FF
:100A880091340334953406347534083415340034FD
:100A98002534653405340734193400342934653471
:100AA80081340034C03405307D06031D5C2D5D2D76
:100AB800652D3D008E18612D622D652D8731172714
:100AC800853120000C0E01393F06031D6C2D6D2D5C
:100AD800752D0C0E890C01393E060319742D752DE0
:100AE800952D863117268531003084317B24853158
:100AF80020000C0E0139BF000C0E890C0139BE0014
:100B08000C1A872D8A2D22000E158C2D22000E110D
:100B180020008C1A902D932D22008E15952D2200E1
:100B28008E110800033020002005F0007008F40042
:100B38002108F30073083007B0007408313DB10094
:100B48004930B600F101F201B92D35088600870158
:100B5800360884008501000881000130B60701309D
:100B6800B5070130F1070030F23D74087202031D29
:100B7800BF2D73087102031CC22DC32DA92D0800B7
:100B88002A340334313400343634003446340034E3
:100B980031340034343400343534003435340034DE
:100BA80020340034483400344934003444340034A8
:100BB800203400344B340034653400347934003444
:100BC800623400346F3400346134003472340034D9
:100BD80064340034093402342934003401340134D3
:100BE8000034A0343234093404340034003402347C
:100BF800033401340134003409342134113401340C
:100C08000034013422343F3400340734053481344D
:100C18000334083400340134073405340134033410
:100C28000834003401342000EA016A08513E860085
:100C3800870181010130EA0708306A02031C252E6A
:100C4800262E192E0C0E01393F0603192C2E2D2E97
:100C5800322E0C1A302E312E322E51160C0E890CD3
:100C680001393E060319392E3A2E3F2E8C1A3D2E95
:100C78003E2E3F2E511408002000EB006B0803198C
:100C8800462E472E492E0030622E6B08EA000330AC
:100C9800EA35890B4C2E6A08283E86008701811B9D
:100CA800562E572E472E6B08EA000330EA35890B7B
:100CB8005A2E6A08293E8600870101080800230089
:100CC8008C018E0121009801FC309900903027009A
:100CD8009B00C330210095008C1624008C1621003F
:100CE8000C1624000C16210095138E1122000E15E7
:100CF80021000E1122008E152000BF01BE01080040
:100D08003D00930190019F3097007B30920096013F
:100D180016309800902E90119019932E942E8F2EA5
:100D28000E128731442786312000BD01BB01E30143
:100D38000330FD00080018340334443400344934C7
:100D480000345934003420340034443400346534D9
:100D58000034763400346934003463340034653444
:100D68000034733400343D008E19BB2EBC2EC12EC6
:100D78008E0192018E150130FD008E1AC42EC52EEB
:100D8800C12E90019201121412160230FD000800C3
:100D98002000EC00EB016C1CD22ED32ED52E6A0855
:100DA800EB070310EA0D0310EC0C6C08031DDD2E95
:100DB800DE2ECF2E6B080800F200F101721CE52E22
:100DC800E62EE82E7008F1070310F00D0310F20C60
:100DD8007208031DF02EF12EE22E7108080012345D
:100DE8000134003402340034003400340834D83478
:100DF8000434A6340134013400340134023400349C
:100E08000134863163268731873128278731863137
:100E1800B726873187315027873185315725873164
:100E2800112F803110280030863140268731003A52
:100E380003191F2F202F272F873181278731003053
:100E48008431CA248731080014303D009100FD0127
:100E58002000BD01E3013D009601930187317A2707
:100E680087313D000E1208003D00181C3C2F3D2F15
:100E7800422F8731442787313D001810901208000F
:100E88002000BA010830A1000030A3004030A200C1
:100E98008830A000A40108004B303D0092000B17D9
:100EA8008B17210012150800083451340034083417
:100EB80059340034763487349F348634C4348534C6
:100EC800640080010131890B652F00343D008E10CC
:100ED8001211FB30900508003D001215EF30900507
:100EE8008E14080004340334093404343D000E170A
:0C0EF8000E1308003D0010130800080055
:020000040001F9
:04000E00A40FCF1F4D
:00000001FF
